:020000040000FA
:0600000099EF15F012005B
:08000800D390D392D38C55EF85
:0200100011F0ED
:08001800D390D392D38CA2EF28
:0200200011F0DD
:0610000099EF15F012004B
:02100600FFFFEA
:08100800D390D392D38C55EF75
:0210100011F0DD
:021012001200CA
:021014000000DA
:021016000200D6
:08101800D390D392D38CA2EF18
:0210200011F0CD
:0E102200010014100000EE01000002000000AA
:10103000D9CFE6FFE1CFD9FFE652A0940F015F6B55
:10104000626A536B010EE66EE66AE66A540EE66E5D
:101050000F0EE66E6FEC15F00B6E050EE15E0B5099
:10106000160E616E0F019F0E5B6F7B0E606EDF6A66
:10107000DF500B6E0C6A080E0B5C000E0C5810E271
:10108000DF50040DF3CFE9FFF4CFEAFF000EE926AD
:10109000020EEA22EE6AEE6AEE6AEE6ADF2AE8D70C
:1010A000648C0F015C6B6498649C62A607D06296A6
:1010B0000101D16BD66BD76BD86BF7D70101010E4D
:1010C000E86FE96FEA6BEB6BDE6BDF6A020EDF5CE9
:1010D00026E2EA6ADF34FE0BEA36E96EC90EE9263B
:1010E000010EEA22EE6AED6AEA6ADF34FE0BEA36A6
:1010F000E96EC50EE926010EEA22EE6AED6ADF50BE
:10110000EA6AE20FE96E010EEA22EF6ADF50EA6A4C
:10111000E40FE96E010EEA22EF6ADF2AD7D7010158
:10112000080EC96F020ECA6F0F01160E536F02012F
:10113000200E026F020E036F080E016F840E006F07
:101140000101BF6BBE6BE552E552E7CFD9FF12003C
:10115000D9CFE6FFE1CFD9FFE6520101BE0507E195
:1011600064BA05D0626A60806088020EBE6F625009
:10117000040B06E06050040B03E0629491EC0EF067
:1011800064B25AD06250010B09E06050010B06E0D6
:101190004FDFA0840101040EBE6F62906250100BFD
:1011A00006E06050100B03E07CEC0EF0629862AC3D
:1011B00019D060AC0FD0010EE66EE66A000EE66E46
:1011C000E66A730EE66EE66A88EC12F00B6E060EA7
:1011D000E15E0B50629C0101E65101E0E607E65139
:1011E00001E1FDD96250200B05E06050200B02E0C8
:1011F00062EC0EF06250020B14E06050020B11E042
:10120000010EE66EE66A000EE66EE66AE6687F0E9E
:10121000E66E88EC12F00B6E060EE15E0B500F01CD
:101220005F6B040E0101E76EBE19E8AE02D0E73431
:1012300002D0E750BE5D02E2A19439D060A636D05C
:10124000DF6A040EDF5C32E262A630D063CFDFF1EA
:101250000101DF51780BE842E842E842E06F629614
:10126000DFB506D0E051EA6AE40FE96E010E05D061
:10127000E051EA6AE20FE96E010EEA22EF70E051F6
:1012800003E1A8EC0EF010D0000EE66EE66ADF0E69
:10129000E66E010EE66E720EE66EE66A88EC12F0FD
:1012A0000B6E060EE15E0B50DF2ACBD7A194E55200
:1012B000E552E7CFD9FF1200D9CFE6FFE1CFD9FF42
:1012C000020EE126FD0EDBA407D0E66AFE0EDBCFA0
:1012D000E6FF14DAE552E552FD0EDBA208D0010E5E
:1012E000E66EFE0EDBCFE6FF09DAE552E552FE0EB2
:1012F000DB500C6A530F0B6E0F0E0C220BC0DEFF7F
:101300000CC0DDFFDECFE9FFDDCFEAFFFD0EDBCF56
:10131000EFFF020EE15C02E2E16AE552E16EE552A6
:10132000E7CFD9FF1200D9CFE6FFE1CFD9FF020EF8
:10133000E126FD0EDB500AE0FE0EEA6ADB34FE0B0E
:10134000EA36E96EC90EE926010E09D0FE0EEA6AF8
:10135000DB34FE0BEA36E96EC50EE926010EEA2201
:10136000EECFDEFFEDCFDDFFD9CFE9FFDACFEAFF29
:10137000EE50ED1003E1F36AF46A44D0DECFE9FFEA
:10138000DDCFEAFF020EE926000EEA22FB0EDBCFDC
:10139000EEFFFC0EDBCFEDFFDECFE9FFDDCFEAFF96
:1013A000EE52FA0EDBCFEFFF400EDECFE9FFDDCFCE
:1013B000EAFFE850EF16880EDECFE9FFDDCFEAFF47
:1013C000E850EF12FD0EDB500AE0FE0EEA6ADB3455
:1013D000FE0BEA36E96EC90EE926010E09D0FE0EB3
:1013E000EA6ADB34FE0BEA36E96EC50EE926010E29
:1013F000EA22EF74DECF0BF0DDCF0CF00BC0F3FF71
:101400000CC0F4FF020EE15C02E2E16AE552E16E1B
:10141000E552E7CFD9FF1200D9CFE6FFE1CFD9FFE0
:10142000020EE126FE0EDB5020E1C3C1E9FFC4C17C
:10143000EAFFEE52080EEF6EC3C1E9FFC4C1EAFF36
:10144000020EE926000EEA22200EEE6E020EED6E6E
:10145000C3C1E9FFC4C1EAFF8C0EEF6EC9C1E9FF49
:10146000CAC1EAFF840EEF6E3BD0FD0EDB50E824CC
:101470000D6EFE0EDB50040DF3500D24040DF3CF62
:101480000BF0F4CF0CF0000E0B26020E0C220BC05A
:10149000DEFF0CC0DDFF840EDECFE9FFDDCFEAFF0B
:1014A000E850EF12FD0EDB50E8240D6EFE0EDB500F
:1014B000040DF3500D24010F040DF3CF0BF0F4CF06
:1014C0000CF0000E0B26020E0C220BC0DEFF0CC02F
:1014D000DDFF840EDECFE9FFDDCFEAFFE850EF123B
:1014E000020EE15C02E2E16AE552E16EE552E7CF0D
:1014F000D9FF1200D9CFE6FFE1CFD9FF64A84ED0C3
:10150000FE0EEA6ADB34FE0BEA36E96EC90EE92606
:10151000010EEA22EE50EFCFEAFFE96E400EEE1622
:10152000EE6AEE6AEE6AFE0EEA6ADB34FE0BEA361B
:10153000E96EC90EE926010EEA22EE50EFCFEAFF6E
:10154000E96EEE7CFE0EEA6ADB34FE0BEA36E96EEB
:10155000C90EE926010EEA22EF74400E0B6EFE0E54
:10156000EA6ADB34FE0BEA36E96EC90EE926010EA3
:10157000EA22EE50EFCFEAFFE96E0B50EF16FE0EB7
:10158000EA6ADB34FE0BEA36E96EC90EE926010E83
:10159000EA22EE50EFCFEAFFE96EEF7CE552E7CFAB
:1015A000D9FF1200646A606A0101BE6B120001017A
:1015B000BE5114E1646A606A160E616E0F019F0EDF
:1015C0005B6F7B0E606ED08EA284A084F28E64B6B8
:1015D00002D06486FCD70101010EBE6F120001012A
:1015E000E8514DE1010EE86FE95149E1010EE96F63
:1015F000020ECE5D0DE1C9C1E9FFCAC1EAFFEE529C
:10160000EF6AC9C1E9FFCAC1EAFFC80EEF6E120056
:10161000CE0535E1E16BC1C1E9FFC2C1EAFFEE527F
:10162000080EEF6EC1C1E9FFC2C1EAFF020EE92652
:10163000000EEA22200EEE6E020EED6EC1C1E9FF31
:10164000C2C1EAFF840EEF6E010EE16FC3C1E9FF74
:10165000C4C1EAFFEE52080EEF6EC3C1E9FFC4C178
:10166000EAFF020EE926000EEA22200EEE6E020EBE
:10167000ED6EC3C1E9FFC4C1EAFF800EEF6E120038
:101680000101EA6BEB6B020ECE5D18E1C3C1E9FF0D
:10169000C4C1EAFFEE52080EEF6EC3C1E9FFC4C138
:1016A000EAFF020EE926000EEA22280EEE6E020E76
:1016B000ED6EC3C1E9FFC4C1EAFF1DD0D2510201E2
:1016C000265D0101D3510201275904E226C2D2F15D
:1016D00027C2D3F1CAD8C9C1E9FFCAC1EAFF020EC5
:1016E000E926000EEA22280EEE6E020EED6EC9C14A
:1016F000E9FFCAC1EAFFC80EEF6E1200D9CFE6FFBC
:10170000E1CFD9FF020EE126000EDE6E020EDD6E85
:10171000FD0EDB50E8240D6EFE0EDB50040DF35081
:101720000D24040DF4CF0CF0D9CFE9FFDACFEAFF96
:10173000F350EE260C50ED22DECFE9FFDDCFEAFFBD
:10174000EF9EFD0EDB500AE1FE0EEA6ADB34FE0B73
:10175000EA36E96EC50EE926010E09D0FE0EEA6AE8
:10176000DB34FE0BEA36E96EC90EE926010EEA22E9
:10177000DECFEEFFDDCFEDFFDECFE9FFDDCFEAFF0D
:10178000EF9CDECFE9FFDDCFEAFF040EE926000E75
:10179000EA22EF8C020EE15C02E2E16AE552E16EC0
:1017A000E552E7CFD9FF120064980101D1BF2BD0D9
:1017B000D6AF09D0020ECE6FEB5101E161DF01011E
:1017C000E96BE86B1200C3C1E9FFC4C1EAFFEE5246
:1017D000080EEF6EC3C1E9FFC4C1EAFF020EE9269D
:1017E000000EEA22200EEE6E020EED6EC3C1E9FF7E
:1017F000C4C1EAFF8C0EEF6EC9C1E9FFCAC1EAFF9E
:10180000840EEF6E1200020120AF0DD00101010E17
:10181000CE6FEA5101E134DF0101E96BE86BE7517A
:1018200023E1EFEF0AF00101020ECE6FC3C1E9FF21
:10183000C4C1EAFFEE52080EEF6EC3C1E9FFC4C196
:10184000EAFF020EE926000EEA22200EEE6E020EDC
:10185000ED6EC3C1E9FFC4C1EAFF840EEF6EE96B10
:10186000E86BE75101E1BBDE1200D9CFE6FFE1CF23
:10187000D9FFE652080EDF6E0101D25D000ED3598A
:101880000AE2D2C1DFFFCD5102E1010E03D0CD0546
:1018900002E1020ECD6FDF500C6AE850D25DD26FCC
:1018A0000C50D359D36FC9C1E9FFCAC1EAFFEE5248
:1018B000DFCFEFFF280EDB6F020EDC6FD1B118D047
:1018C000DF502DE0CFC1F6FFD0C1F7FFCF2B000EC8
:1018D000D0230800F550E66EDBC1E9FFDCC1EAFF6A
:1018E000DB2B000EDC23E552E750EF6EDF06E8D776
:1018F000DF5015E0CFC1E9FFD0C1EAFFCF2B000ECA
:10190000D023EF50E66EDBC1E9FFDCC1EAFFDB2B41
:10191000000EDC23E552E750EF6EDF06E9D7E55213
:10192000E552E7CFD9FF1200D9CFE6FFE1CFD9FFCB
:10193000020EE126C1C1E9FFC2C1EAFFEE52EFCFBC
:10194000DFFFDFCF0BF00B500101D75D000ED85940
:1019500002E2D7C1DFFFDF500B6E0C6AE850D75DA3
:10196000D76F0C50D859D86F010EDB6ADF50F36E79
:10197000010EDBCFF4FFF350F45C16E2010EDB50F6
:10198000EA6A280FE96E020EEA22EF50E66ED4C131
:10199000E9FFD5C1EAFFD42B000ED523E552E7506D
:1019A000EF6E010EDB2AE2D7000ED880D755000E6D
:1019B000D85527E2C3C1E9FFC4C1EAFFEE52080EC1
:1019C000EF6EC3C1E9FFC4C1EAFF020EE926000EB3
:1019D000EA22280EEE6E020EED6EC1C1E9FFC2C111
:1019E000EAFFEF50400B06E1C3C1E9FFC4C1EAFFC3
:1019F000C80E05D0C3C1E9FFC4C1EAFF880EEF6E6F
:101A000028D0C3C1E9FFC4C1EAFFEE52080EEF6E51
:101A1000C3C1E9FFC4C1EAFF020EE926000EEA22B3
:101A2000200EEE6E020EED6EC3C1E9FFC4C1EAFFE7
:101A3000840EEF6ED951DA1107E005D0DAC1FAFF52
:101A40000101D951F96EFADF0101D69FE75101E199
:101A5000C6DD020EE15C02E2E16AE552E16EE552AA
:101A6000E7CFD9FF1200D9CFE6FFE1CFD9FFE65289
:101A70000101D18F010EE66EE66AE66A540EE66E4B
:101A80000F0EE66E6FEC15F00B6E050EE15E0B505F
:101A9000200EE66EE66AE66A000EE66E020EE66E5E
:101AA0006FEC15F00B6E050EE15E0B50648CDF6A77
:101AB000020EDF5C10E2DF50EA6AE20FE96E010E0F
:101AC000EA22EF6ADF50EA6AE40FE96E010EEA22C9
:101AD000EF6ADF2AEDD7010EE66EE66AE66AC00E0F
:101AE000E66E010EE66E6FEC15F00B6E050EE15E14
:101AF0000B50649C0101080EC96F020ECA6F000EE4
:101B0000C16F020EC26FC1C1C3F1C46F22C2BFF167
:101B1000BF5102E1100E12D0010EE66EE66ABF0E52
:101B2000E66E010EE66E010EE66EE66A88EC12F0D5
:101B30000B6E060EE15E0B500101200EBE6FE552EA
:101B4000E552E7CFD9FF1200800E0201205D58E177
:101B50000101C00ED16F02012351030A2FE0010AD7
:101B600009E0030A4BE10101EE0ECF6F260ED06FA4
:101B7000120E3ED02251F66EF76AD890F636F7363E
:101B80001D0EF626280EF7220900F5CFCFF10A0028
:101B9000F5CFD0F1020E0101F76ACF25F66ED051D4
:101BA000F7220800F5CFD2F1030EF76ACF25F66EC3
:101BB000D051F7220800F5CFD3F11200030E225DB9
:101BC0001AE22251F66EF76AD890F636F7361F0EF3
:101BD000F626280EF7220900F5CFCFF10A00F5CF3F
:101BE000D0F1CFC1F6FFD0C1F7FF0800F5500101D9
:101BF000D26FD36B12000101D16B12000101D16BC6
:101C00001200D9CFE6FFE1CFD9FF020EE126020193
:101C1000286B296B20511F0B020A11E0030A0CE00C
:101C2000010A3CE10101D18F020128810101DD059A
:101C300035E10201288332D00101D18F2FD001017B
:101C4000D18F020124BF0BD024510F0BE96EEA6A39
:101C5000D890E936EA36C50EE926010E0AD024519D
:101C60000F0BE96EEA6AD890E936EA36C90EE92622
:101C7000010EEA22EECFDEFFEDCFDDFFDECFE9FF82
:101C8000DDCFEAFFEF50800B09E0DECFE9FFDDCFCB
:101C9000EAFFEF50040B02E0010E286F0101D1AF03
:101CA00007D0280ECF6F020ED06FD181020ED26FF7
:101CB000020EE15C02E2E16AE552E16EE552E7CF35
:101CC000D9FF12000F0153A115D0C1C1E9FFC2C154
:101CD000EAFFEF5080080DE1C9C1E9FFCAC1EAFF80
:101CE000EF50840806E1C1C1E9FFC2C1EAFF8C0ED2
:101CF000EF6E5391629A12006084629864820101CF
:101D0000010EDE6F000EE66EE66AE66EE66A750E9E
:101D1000E66EE66A88EC12F00B6E060EE15E0B5082
:101D200012000101DE6B000EE66EE66AE66EE66A00
:101D3000740EE66EE66A88EC12F00B6E060EE15E3B
:101D40000B506492609462A402D06294FCD712009B
:101D5000D9CFE6FFE1CFD9FFE65201012D0EE66FA4
:101D6000FD0EDF1553E17E0EDF15E8407F0B040DFD
:101D7000F3CFC1F1F4CFC2F1000EC127020EC2238E
:101D8000C1C1C3F1C2C1C4F1C375C1C1E9FFC2C1C0
:101D9000EAFFEF503C0BE842E8420D0835E1DF6A0C
:101DA000080EDF5C23E2C1C1E9FFC2C1EAFF020EF7
:101DB000E926000EEA22EE50EFCFEAFFE96EEF507F
:101DC000E66EDF50EA6A200FE96E020EEA22E55263
:101DD000E750EF6EC1C1E9FFC2C1EAFF020EE9267A
:101DE000000EEA22EE2AEF22DF2ADAD7C1C1E9FF8C
:101DF000C2C1EAFF020EE926000EEA22200EEE6EB4
:101E0000020EED6E0DD807D03AD805D0FD0EDF15C5
:101E1000040801E159D8E552E552E7CFD9FF120095
:101E20000101CD6BE76BEA6BEB6BE16BCE6BC9C16C
:101E3000E9FFCAC1EAFFEF9EC975C9C1E9FFCAC17E
:101E4000EAFFEF9EC975C3C1E9FFC4C1EAFFEF9E77
:101E5000D16BD26BD36BD66BD76BD86B8FD8000E90
:101E6000E66EE66AE66EE66A030EE66EE66A88EC01
:101E700012F00B6E060EE15E0B50D4EF0BF0020E6B
:101E80000101CE5D02E194EF0CF0CE6BE1511AE15D
:101E9000C3C1E9FFC4C1EAFFEE52080EEF6EC3C131
:101EA000E9FFC4C1EAFF020EE926000EEA22200E75
:101EB000EE6E020EED6EC3C1E9FFC4C1EAFF8C0EE7
:101EC000EF6E1200E16B1200D9CFE6FFE1CFD9FF30
:101ED000E652C9C1E9FFCAC1EAFFEF50400B01E079
:101EE000010EDF6E0101C975080EBE5D0BE122C255
:101EF0005CFF0F015C5103E00101100E02D00101F3
:101F0000040EBE6FCE0526E1C9C1E9FFCAC1EAFFD2
:101F1000020EE926000EEA22280EEE6E020EED6E8B
:101F2000A4DC020E0101CD5D06E1C9C1E9FFCAC111
:101F3000EAFF840E0DD0DF5006E1C9C1E9FFCAC136
:101F4000EAFFC80E05D0C9C1E9FFCAC1EAFF880E81
:101F5000EF6E0FD0D6AF0CD0D951DA1107E005D013
:101F6000DAC1FAFF0101D951F96EFADF0101D69FFA
:101F7000CE6BE552E552E7CFD9FF120002012051A6
:101F8000600BE842E842E842E842E842000901E02A
:101F9000120021510C0A50E00B0A3FE00C0A31E01C
:101FA000010A22E00B0A1EE0020A1CE0030A18E004
:101FB000080A10E0010A0CE00F0A08E0030A01E039
:101FC00012000101D18F080EBE6F1200A4EF0DF0B8
:101FD00033EF0DF00101BF0ECF6F010ED06F0CD0AB
:101FE00001EF0EF01DEF10F024510101CF6FD06B07
:101FF000C00ECF27010ED023D181010ED26FD18F19
:1020000012000101D18F02012451EA6AC00FE96E6A
:10201000010EEA2222C2EFFF1200000EE66EE66A0F
:10202000E66EE66A020EE66EE66A88EC12F00B6E69
:10203000060EE15E0B5012001200D9CFE6FFE1CF91
:10204000D9FF050EE1260201220510E120511F0BE8
:1020500000090CE10101D18F030E0201215D04E1B1
:102060000101010EDD6F02D00101DD6B0201225181
:1020700001E011D120511F0B020801E00CD12451C5
:102080000F0B000901E107D124510F0B010801E2F8
:1020900002D1200E0101BE5D01E0FDD0D18F020111
:1020A00024BF16D024510F0BE96EEA6AD890E936A6
:1020B000EA36C50EE926010EEA22EECFDEFFEDCFAD
:1020C000DDFF24510F0BEA6AE40FE96E010E15D013
:1020D00024510F0BE96EEA6AD890E936EA36C90E48
:1020E000E926010EEA22EECFDEFFEDCFDDFF24511F
:1020F0000F0BEA6AE20FE96E010EEA22020EEFCF41
:10210000DBFFD950020FE96EDACFEAFFEF50010B87
:1021100003E1000EDF9401D0DF8424BF0BD02451F3
:102120000F0BE96EEA6AD890E936EA36C50EE92661
:10213000010E0AD024510F0BE96EEA6AD890E936F5
:10214000EA36C90EE926010EEA22DECFEEFFDDCF28
:10215000EDFF030E215D20E1DECFE9FFDDCFEAFFD9
:10216000EF50800B11E024BF07D024510F0BEA6A17
:10217000E40FE96E010E06D024510F0BEA6AE20F5C
:10218000E96E010EEA22EF82840EDECFE9FFDDCF99
:10219000EAFFE850EF127FD0DF74DECFE9FFDDCF3A
:1021A000EAFFEF50800B1BE0DECFE9FFDDCFEAFF57
:1021B000EF9EDECFE9FFDDCFEAFFEF8C020EE66E89
:1021C000E66ADECFE6FFDDCFE6FF050EE66EE66AE5
:1021D00088EC12F00B6E060EE15E0B5005D0DECFE0
:1021E000E9FFDDCFEAFFEF8CDF74D950020FE96E13
:1021F000DACFEAFFEF50020B07E1DECFE9FFDDCFD8
:10220000EAFFEF50800B2BE0020124BF07D02451DE
:102210000F0BEA6AE40FE96E010E06D024510F0B92
:10222000EA6AE20FE96E010EEA22EF923B0E0B6EB4
:10223000DECFE9FFDDCFEAFFE850EF16020EE66ED3
:10224000E66ADECFE6FFDDCFE6FF050EE66EE66A64
:1022500088EC12F00B6E060EE15E0B5007D03B0EC1
:10226000DECFE9FFDDCFEAFFE850EF16020124518F
:102270000F0B0C6A530F0B6E0F0E0C22030E0BC0CC
:10228000DBFF040E0CC0DBFF030EDBCFE9FF040E07
:10229000DBCFEAFFEF90050EE15C02E2E16AE55276
:0A22A000E16EE552E7CFD9FF12000E
:0622AA00DACFE4FFE2CFF1
:1022B000DAFFE9CFE4FFEACFE4FFF6CFE4FFF7CFA0
:1022C000E4FFF5CFE4FFF3CFE4FFF4CFE4FFFACF70
:1022D000E4FF00EE00F00B0EE80403E3EECFE4FFB2
:1022E000FBD700EE0BF0030EE80403E3EECFE4FFB0
:1022F000FBD7E6528A8EA8EC08F08A9EE55200EEE3
:102300000DF0030EE80403E3E5CFEDFFFBD700EE8D
:102310000AF00B0EE80403E3E5CFEDFFFBD7E5CFB2
:10232000FAFFE5CFF4FFE5CFF3FFE5CFF5FFE5CF0B
:10233000F7FFE5CFF6FFE5CFEAFFE5CFE9FFE5CF11
:10234000DAFF1100D8CFE4FFE0CFE4FFE46EDACF8C
:10235000E4FFE2CFDAFFE9CFE4FFEACFE4FFF6CF14
:10236000E4FFF7CFE4FFF5CFE4FFF3CFE4FFF4CFD2
:10237000E4FFFACFE4FF00EE00F00B0EE80403E305
:10238000EECFE4FFFBD700EE0BF0030EE80403E30F
:10239000EECFE4FFFBD7E652F0A006D0F096F09027
:1023A0008B8E54D88B9EF086E55200EE0DF0030E16
:1023B000E80403E3E5CFEDFFFBD700EE0AF00B0ED8
:1023C000E80403E3E5CFEDFFFBD7E5CFFAFFE5CF68
:1023D000F4FFE5CFF3FFE5CFF5FFE5CFF7FFE5CF5E
:1023E000F6FFE5CFEAFFE5CFE9FFE5CFDAFFE550FD
:1023F000E5CFE0FFE5CFD8FF100009D8D7EC0AF011
:1024000016D8FFD78B9E949E8A9E939E12000F0E25
:10241000C112F8DF02D818EF08F00101EE6BEF6B84
:102420000001686B010E696F020E6A6F1200F28E76
:10243000F28CD08E94827E9AF19AF090F09CF08685
:10244000938C8A9C93888A98CEEF14F076EF14F0E0
:1024500060CF60F0050E606E030ED36E1200D9CF10
:10246000E6FFE1CFD9FF020EE126600ED36E200E0B
:10247000DE6E030EDD6EDFCF0BF0DF06010EDBCF6D
:102480000CF001E2DB060B500C10F5E160C060FFC0
:10249000020EE15C02E2E16AE552E16EE552E7CF4D
:1024A000D9FF12000001622B000E632312001200FC
:1024B00013EF14F012001A0EE66E010EE66E5CECDD
:1024C00009F0E552E55212000101DD0520E10101AC
:1024D000DE051DE1A094C3DF64920101DE6B000103
:1024E000100E6B6F0E0E6C6F6B07000E6C5B6B51FA
:1024F0006C11FAE16484080E6B6F070E6C6F6B074A
:10250000000E6C5B6B516C11FAE16494A0841200B4
:10251000D9CFE6FFE1CFD9FFFD0EDBCF06F0FE0EEF
:10252000DBCF07F0050E061801E1075036E0E8683A
:10253000061802E17F0E07182FE0030E061801E1CE
:10254000075028E0020E061801E1075021E0010EB5
:10255000061801E107501AE0740E061801E1075051
:1025600013E0750E061801E107500CE0730E061813
:1025700001E1075005E0720E06180FE107500DD07B
:1025800091DF0BD065DF09D06ADF07D094DF05D07B
:1025900091DF03D08DDF01D08ADF010EE552E7CF56
:1025A000D9FF1200D9CFE6FFE1CFD9FFE652020EE4
:1025B000020122191BE1030E231918E10001020E8A
:1025C0006E6F6D6F0201265D000E275903E226C271
:1025D000DFFF02D0020EDF6E01016D0ECF6F000E25
:1025E000D06FDF50D26FD36B810ED16FE552E552C1
:1025F000E7CFD9FF12000101EE51EF1102E1000E09
:1026000008D0EEC1E9FFEFC1EAFFEF50800B01E017
:10261000010E00096BE10201010E606F0F0E010156
:10262000841502016D6F010E735D1FE3030E616F70
:102630008AC10BF08BC10CF0040ED8900C320B3217
:10264000E804FBE1110E0B140201626F88C163F212
:10265000110E010186150201646F8CC165F2110E25
:1026600001018A150201666F06D0616B626B636BB4
:10267000646B656B666B020E735D1FE3030E676F21
:1026800094C10BF095C10CF0040ED8900C320B32B3
:10269000E804FBE1110E0B140201686F92C169F2AC
:1026A000110E0101901502016A6F96C16BF2110EB5
:1026B0000101941502016C6F06D0676B686B696B42
:1026C0006A6B6B6B6C6B0E0EE66E600EE66E020E46
:1026D000E66E010EE66EE66E93EC09F00B6E050EEB
:0E26E000E15E0B50F3CFEEF1F4CFEFF11200FC
:0226EE001201D7
:1026F000000200000008D8045B0001000102000194
:1027000009022200010100E0320904000001030077
:1027100000000921120100012299000705810340F0
:1027200000040403090434034D00690063007200CF
:102730006F006300680069007000200054006500AD
:10274000630068006E006F006C006F006700790026
:10275000200049006E0063002E002A034800490053
:10276000440020004D0075006C00740069002D00CD
:1027700054006F007500630068002000440065008D
:102780006D006F00050D0904A10185010922A10258
:102790000942150025017501950181020932810266
:1027A000950681037508095195018102050126C02E
:1027B000127510550E65330930350046400681020A
:1027C00026B80B46E80309318102C0A102050D09B4
:1027D000421500250175019501810209328102959A
:1027E0000681037508095195018102050126C01271
:1027F0007510550E653309303500464006810226B6
:10280000B80B46E80309318102C0050D0954950152
:1028100075082502810285020955B102C0002722F0
:052820002726275A27BE
:0A282600020120511F0B010801E020
:102830001200245101E01200060E215D1BE123511C
:10284000230A18E0010A0CE0030A14E10101BF05A4
:1028500011E10101120ECF6F270ED06F090E06D0C5
:102860000101840ECF6F270ED06F990ED26FD36BFC
:10287000C00ED16F02012051600BE842E842E842ED
:10288000E842E842010801E0120021510B0A28E069
:10289000080A1BE0090A13E0080A07E00B0A25E012
:1028A000080A01E01200D2EF12F00101EC0ECF6F26
:1028B000010ED06F010ED26FD36BC10E0FD001018C
:1028C000800ED16F23C2ECF112000101ED0ECF6F2B
:1028D000010ED06F010ED26FD36B810ED16F12003B
:0C28E0000101800ED16F22C2EDF1120048
:0428EC00D9CFE6FF5B
:1028F000E1CFD9FF020EE126DFEC14F0E66A700E9C
:10290000E66EF4EC14F0E552E552E66AE8EC14F0F9
:10291000E552E2EC14F0010EE66E700EE66EF4EC99
:1029200014F0E552E552DE6ADD6ADECF0BF0DDCF52
:102930000CF01E0E0B5C000E0C581DE2010EE66E34
:1029400008EC15F0E552E66EDECFE9FFDDCFEAFFD9
:10295000010ED890E936EA36E806FBE1800EE9265A
:10296000010EEA22E552E750EE6EED6ADF2A010E13
:10297000DCE3DB2ADAD7E66A08EC15F0E552010160
:10298000BC6FBD6BE5EC14F0020EE15C02E2E16AA3
:0C299000E552E16EE552E7CFD9FF1200DE
:04299C009388938CFD
:1029A000280EC66EC56A270EC86EC00EC76E12000E
:1029B0001F0EC514FDE1040EC714FAE11200F8DF82
:1029C000C5801200F5DFC5821200F2DFC584120057
:1029D000D9CFE6FFE1CFD9FFEBDFFE0EDB50C96EAA
:1029E000E552E7CFD9FF1200D9CFE6FFE1CFD9FFFB
:1029F000E652FE0EDB50E824DF6EFD0EDB50DF26D4
:102A0000D7DFDF50C96EE552E552E7CFD9FF12009C
:102A1000D9CFE6FFE1CFD9FFE652CADFC586C8DFCE
:102A2000C950DF6EC5DFFE0EDB5002E0C59A01D053
:102A3000C58AC588DF50E552E552E7CFD9FF1200BD
:102A4000220EF66E100EF76E000EF86E00010900F1
:102A5000F550746F0900F550756F03E1746701D08C
:102A60003DD00900F5506F6F0900F550706F0900F7
:102A7000F550716F09000900F550E96E0900F55035
:102A8000EA6E090009000900F550726F0900F5505F
:102A9000736F09000900F6CF76F0F7CF77F0F8CF23
:102AA00078F06FC0F6FF70C0F7FF71C0F8FF00014B
:102AB000725302E1735307E00900F550EE6E72079E
:102AC000F8E27307F9D776C0F6FF77C0F7FF78C052
:0E2AD000F8FF00017407000E755BBFD71200FF
:022ADE00FE0EEA
:102AE000E3CFE9FFFF0EE3CFEAFFE9CFF3FFEACF41
:102AF000F4FFFB0EE35003E1FC0EE35009E0FB0E94
:102B0000E30602E2FC0EE306FD0EE350EE6EF1D7A3
:022B10001200B1
:0E2B1200000EF36E00EE00F0030E01D812006C
:102B2000EA6002D0EE6AFCD7F350E9601200EE6A68
:022B3000FCD7D0
:0E2B320011EE00F021EE00F0F86A0A9C20EC93
:0E2B400015F009EC08F0FDEC11F0FBD71200C7
:020000040030CA
:0100000000FF
:0100010032CC
:0100020003FA
:010003001EDE
:0100050000FA
:010006008178
:0100080003F4
:01000900C036
:01000A0003F2
:01000B00E014
:01000C0003F0
:01000D0040B2
:00000001FF
